:03000000020BA749
:0C0BA700787FE4F6D8FD758170020BEE3B
:100A55002000310048002020004C003200330057B0
:100A65000053005E470076470041542B43574D4FD6
:100A750044453D320041542B5253540041542B43BD
:100A8500575341503D2277696669222C2231323312
:100A95003435363738222C31312C340041542B4330
:100AA50049504D55583D310041542B43495053450C
:100AB500525645523D312C353030300041542B4390
:100AC500495053544F3D3000CEC2CAD2B4F3C5EF9E
:100AD500BCE0BFD800CEC2B6C83A00CAAAB6C83A6A
:100AE50000B9E2B6C83A0041542B43495053454E2C
:100AF500443D302C333400000000000000000000AD
:100B0500000000303132333435363738392D200086
:100E1500016200015C00C180022400260226000A4E
:100E2500026F0050022200000266003202680000D4
:100E3500012100202329CEC2B6C83A3235A1E620C9
:100E45002020CAAAB6C83A323525202020202020E5
:090E5500B9E2B6C83A30333000AE
:0D106A00EFD3940040077EC8DEFE1F80F328
:011077002256
:070F2900120F30ED54F0FF40
:100F3000E4FEEFA806088002C333D8FC30E704D2F1
:0D0F4000A68002C2A6D2A7C2A70EBE08E579
:010F4D002281
:100F9800AD077FF8120F29EDC454F0FF120F307F10
:0E0FA8001412106A7F1412106A7F1402106A6D
:0F105B00AD077FFA120F29EDC454F0FF020F30DA
:100FD400D2A57F34120F987F30120F987F01120F21
:0B0FE400987F06120F987F0C020F98F8
:100F4E008B118A128913AB11AA12A9131206926081
:100F5E00130513E5137002051214F9120692FF120F
:050F6E00105B80E2228F
:050C3300FB7A007D03C7
:080C38008F088D098A0A8B0B5D
:100C4000780C7C007D007BFF7A0A79FC7E007F03B4
:100C500012066C530907E50824FE60101460131493
:100C600060162403701AE50924808010E509249099
:100C7000800AE50924888004E5092498FF120F986A
:100C80007B02AE0AAF0B7C007D0A1206ABED24306E
:100C9000FF740B2BF8A607AE0AAF0B7C007D0A127F
:100CA00006AB8E0A8F0BDBDA7B007A00790C020F21
:010CB0004EF5
:040CB1007D037F043C
:080CB5008F088D098A0A8B0BE0
:100CBD00780C7C007D007BFF7A0A79FF7E007F0532
:100CCD0012066C530907E50824FE60101460131416
:100CDD0060162403701AE50924808010E50924901C
:100CED00800AE50924888004E5092498FF120F98ED
:100CFD007B03AE0AAF0B7C007D0A1206ABED2430F0
:100D0D00FF740B2BF8A607AE0AAF0B7C007D0A1201
:100D1D0006AB8E0A8F0BDBDA7B007A00790C020FA3
:010D2D004E77
:080D2E008F088D098A0A8B0B66
:100D3600780C7C007D007BFF7A0B79047E007F04B3
:100D460012066C530907E50824FE6010146013149C
:100D560060162403701AE50924808010E5092490A2
:100D6600800AE50924888004E5092498FF120F9873
:100D7600AE0AAF0B7C007D0A1206ABEF2430F50CF1
:100D8600AE0AAF0B7C007D0A1206ABED2430F50DE2
:0C0D9600750E437B007A00790C020F4EB2
:080E9F007BFF7A0A79557D07FB
:100EA700EF24FE600F14601114601324037016ED15
:100EB7002480800DED24908008ED24888003ED24A4
:080EC70098FF120F98020F4E74
:100FEF00D3EF9400EE9400400DE4FD0DBD1BFCEF1C
:060FFF001F70ED1E80EAE8
:0110050022C8
:0C107800150815081508150815081508BE
:011084002249
:100E5F00E4FF75590220A007AE590559EE70F6123E
:100E6F001078121078E4F55F30A003755F017559A3
:100E7F000230A007AE590559EE70F6E559640160CE
:0F0E8F000EE56525E0F565E55F42650FBF08C319
:010E9E002231
:100DA200C2A07FB47E00120FEFD2A01210781210F0
:100DB20078121078121078D2A020A056755902200D
:100DC200A007AF590559EF70F675590230A007AF69
:100DD200590559EF70F6120E5F856563120E5F8535
:100DE2006564120E5F856551120E5F856552120EA3
:100DF2005F85655ED2A0E551255225632564F55FC6
:100E0200B55E0F85636085646185512885524C8586
:030E12005E5B2202
:100ECF00C2B3C2B5C2B3D2B4D2B3C2B3D2B4D2B327
:100EDF00C2B3C2B4D2B3C2B3D2B4D2B37E08D2B308
:0E0EEF00C2B330B4010FEF25E0FFDEF2D2B542
:010EFD0022D2
:101033008FE4EEFF8FE375E78175E50375E646758B
:05104300E6B9000022E7
:030FB600FC7E2C92
:100FB9008FE4EEFF8FE3C2AF75E78175E50175E652
:0A0FC9004675E6B90000AFE27E00B5
:010FD30022FB
:101006008DE28FE4EEFF8FE375E78175E50275E605
:071016004675E6B900002257
:050F7300120EFE7FF4E8
:100F78007E00D3EF9400EE940040147D6E7C00ED6B
:0F0F88001D70011CED4C70F7EF1F70E61E80E32B
:010F97002237
:100003003092030200EB3092FDE562C39406500583
:1000130005620200EBE4F562F55C7BFF7A0A795531
:100023007D067F04120EA77F007E2C121033AE24B0
:10003300AF257C017D00120700AC06AD077F007E73
:100043002C121006AD25AC247F01121006AE26AF8C
:10005300277C017D00120700AC06AD077F027E2CD2
:10006300121006AD27AC267F03121006AE6FAF70D9
:100073007C017D00120700AC06AD077F047E2C12C5
:100083001006AD70AC6F7F05121006AE22AF237C55
:10009300017D00120700AC06AD077F067E2C12100F
:1000A30006AD23AC227F07121006AE66AF677C0154
:1000B3007D00120700AC06AD077F087E2C121006E8
:1000C300AD67AC667F09121006AE68AF697C017D2F
:1000D30000120700AC06AD077F0A7E2C121006AD96
:1000E30069AC687F0B121006E562B4070040030297
:1000F30002049000FCF828287302011102011E0279
:10010300016C0201850201AB0201C40201EA7BFF1B
:100113007A0A79557D077F010202017BFF7A0A790A
:10012300577D077F01120EA7D295D291755C017B93
:10013300FF7A0A79597D067F02120EA7D2B7D2B68B
:10014300D2977BFF7A0A795B7D077F02120EA77B2A
:10015300FF7A0A795B7D077F03120EA77BFF7A0A7A
:10016300795B7D077F040202017BFF7A0A79577D61
:10017300077F01120EA77BFF7A0A795E7D067F0255
:10018300807C7BFF7A0A79607D077F01120EA77B53
:10019300FF7A0A79597D067F03120EA77BFF7A0A3D
:1001A300795B7D067F0280567BFF7A0A79607D0743
:1001B3007F01120EA77BFF7A0A795E7D067F03809B
:1001C3003D7BFF7A0A79627D077F01120EA77BFFD1
:1001D3007A0A79597D067F04120EA77BFF7A0A7982
:1001E3005B7D067F0380177BFF7A0A79627D077F39
:1001F30001120EA77BFF7A0A795E7D067F04120E39
:10020300A7E5626401705A2093247F0A120F7820B5
:10021300931CC3E5259463E52464809480500A0508
:1002230025E525700905248005E4F524F5252094AA
:10023300257F0A120F7820941DD3E5259400E52429
:1002430064809480400AE5251525700A15248006EC
:10025300752400752563AB25AA247D037F02120D47
:100263002EE5626402705A2093247F0A120F7820CD
:10027300931CC3E5279463E52664809480500A05A4
:1002830027E527700905268005E4F526F527209440
:10029300257F0A120F7820941DD3E5279400E526C5
:1002A30064809480400AE5271527700A1526800686
:1002B300752600752763AB27AA267D037F02120DDF
:1002C3002EE5626403705A2093247F0A120F78206C
:1002D300931CC3E5709463E56F64809480500A05B2
:1002E30070E5707009056F8005E4F56FF570209473
:1002F300257F0A120F7820941DD3E5709400E56FD3
:1003030064809480400AE5701570700A156F80064A
:10031300756F00757063AB70AA6F7D037F03120C5A
:1003230038E5626404705A2093247F64120F7820A6
:10033300931CC3E5239463E52264809480500A05EB
:1003430023E523700905228005E4F522F523209493
:10035300257F0A120F7820941DD3E5239400E5220C
:1003630064809480400AE5231523700A15228006D1
:10037300752200752363AB23AA227D037F03120C2E
:1003830038E562640570562093247F0A120F7820A3
:10039300931CC3E5679464E56664809480500A0502
:1003A30067E567700905668005E4F566F5672094DF
:1003B300257F0A120F7820941DD3E5679400E56624
:1003C30064809480400AE5671567700A15668006A5
:1003D300756600756764AB67AA66120CB1E5626463
:1003E3000670562093247F0A120F7820931CC3E5CE
:1003F300699463E56864809480500A0569E56970CF
:100403000905688005E4F568F5692094257F0A12DB
:100413000F7820941DD3E5699400E5686480948087
:10042300400AE5691569700A1568800675680075E4
:0A0433006963AB69AA68120CB122DC
:10090F00200003020A54AF287E00D3EF9525E5247B
:10091F006480F8748098504DC3EF9527E526648066
:10092F00F8748098403FAF60D3EF9570E56F6480A7
:10093F00F8748098502FC3EF9523E5226480F874E4
:10094F0080984021AF50D3EF9567E5666480F874C7
:10095F0080985011C3EF9569E5686480F8748098AA
:10096F004003020A3BB295AF287E00D3EF9525E5F1
:10097F00246480F8748098500EC3EF9527E52664A1
:10098F0080F874809850087BFF7A0A796480067B20
:10099F00FF7A0A79557D077F02120EA7AF607E009E
:1009AF00D3EF9570E56F6480F8748098500EC3EFA5
:1009BF009523E5226480F874809850087BFF7A0AAB
:1009CF00796680067BFF7A0A79557D077F03120EC1
:1009DF00A7AF507E00D3EF9567E5666480F874800B
:1009EF0098500EC3EF9569E5686480F8748098504D
:1009FF002ED3EF9567E5666480F8EE648098400823
:100A0F007BFF7A0A7968801DC3E5509569E56864B4
:100A1F0080F8748098502E7BFF7A0A796B80067B62
:100A2F00FF7A0A795B7D077F04020EA77F02120E01
:100A3F009F7F03120E9F7BFF7A0A795B7D077F04EE
:060A4F00120EA7D2952251
:100B1500200003020BA6AF287E00D3EF9525E52420
:100B25006480F87480984006C2B6D2B78019C3EFC6
:100B35009527E5266480F8EE6480985006C2B7D202
:100B4500B68004D2B6D2B7AF607E00D3EF9570E51C
:100B55006F6480F87480984006C291D2978019C35B
:100B6500EF9523E5226480F8EE6480985006C297DD
:100B7500D2918004D297D291AF507E00D3EF956782
:100B8500E5666480F87480984003C29022C3EF95AF
:100B950069E5686480F8EE6480985003C29022D2BB
:020BA50090229C
:07108500AE071FEE70FA2216
:10101D00758921759850758DFD858D8BE4F587D279
:06102D00AFD2ACD28E220E
:10104800C2ACC2998F993099FDC299D2ACE4F58CA3
:03105800F58A22F4
:100EFE00120692FF60111210487F051210857401C0
:100F0E0029F9E43AFA80E97F051210857F0D121057
:0B0F1E00487F051210857F0A02104872
:100744007F007E2C120FB9EF7D007F01120FB6EDF2
:100754002FF525EE3CF5247F027E2C120FB9EF7F96
:1007640003120FB6ED2FF527EE3CF5267F047E2C01
:10077400120FB9EFFC7F057E2C120FB9ED2FF57027
:10078400EE3CF56F7F067E2C120FB9EFFC7F077EDF
:100794002C120FB9ED2FF523EE3CF5227F087E2CA9
:1007A400120FB9EFFC7F097E2C120FB9ED2FF567FC
:1007B400EE3CF5667F0A7E2C120FB9EFFC7F0B7EB0
:1007C4002C120FB9ED2FF569EE3CF56812101D7F60
:1007D400F4120F787BFF7A0A796E120F737A0A7912
:1007E4007A120F737A0A7981120F737A0A79A11235
:1007F4000F737A0A79AD120F737A0A79C1120F73E3
:10080400120FD47A0A79CD7D017F01120EA77BFFE6
:100814007A0A79DAE4FD7F02120EA77BFF7A0A795D
:10082400E0E4FD7F03120EA77BFF7A0A79E6E4FD7C
:100834007F04120EA7120003E55C7049120DA2E5B5
:10084400607F03120C337F2512105BE5287F0212B0
:100854000C337F4312105B120ECF8F50C374FF957D
:1008640050F550FCE41204E77B337A337923784063
:1008740012044012051B8F50EFFB7A00120CB112C8
:10088400090F120B15E56075F00A84F54DE56075E6
:10089400F00A8485F04EE54D900B0893F53AE54E49
:1008A40093F53BE52875F00A84F54DE52875F00AC3
:1008B4008485F04EE54D93F52EE54E93F52FE550E6
:1008C40075F06484F54DE55075F06484E5F075F0D9
:1008D4000A84F54EE55075F00A8485F04FE54D9392
:1008E400F548E54E93F549E54F93F54A7BFF7A0ABF
:1008F40079EC120EFE7F64120F787B007A0079295E
:0B090400120EFE7F64120F780208390B
:10043D00020591EC5D046005E8590470030205871F
:10044D00120552580460F6EC4860F2EC7004FDFEA3
:10045D00FF22C860DB2481C85009C3986002500692
:10046D0002058E9850CAF582E9294B4A7005AB8278
:10047D0002057D75F0007C1A7880C3EF9BEE9AED36
:10048D0099400DC3EF9BFFEE9AFEED99FDE842F00A
:10049D00DC23ACF0D0E0FFD0E0FED0E0FDAB82205D
:1004AD00E7101BEB60BAEC2CFCEF33FFEE33FEEDE7
:1004BD0033FD020569E803F830E705C0F075F0007B
:1004CD00EF2FFFEE33FEED33FD40B830E7C280AACB
:1004DD0075F020800E75F010800575F0087D007E9A
:1004ED00007F003392D530D503120736EC33401020
:1004FD00EF33FFEE33FEED33FDEC33FCD5F0ED22A3
:0E050D00E5F0247EA2D513CC92E7CDCEFF22DE
:10051B00EDD2E7CD33EC3392D524814006E4FFFED8
:10052B00FDFC22FCE4CFCECDCC24E0501174FF8037
:10053B00EDC3CC13CCCD13CDCE13CECF13CF0470D4
:07054B00F030D5DE02073697
:10055200E9D2E7C933E833F892D5EDD2E7CD33ECEF
:0705620033FC5002B2D52268
:10056900EC30E7100FBF000C0EBE00080DBD0004F3
:100579000BEB6014A2D5EB13FCED92E7FD2274FF9F
:10058900FCFDFEFF22E480F8A2D574FF13FC7D80F8
:03059900E480EF0C
:100BB300020744E493A3F8E493A34003F68001F20D
:100BC30008DFF48029E493A3F85407240CC8C33343
:100BD300C4540F4420C8834004F456800146F6DF12
:100BE300E4800B0102040810204080900E15E47E7F
:100BF300019360BCA3FF543F30E509541FFEE49307
:100C0300A360010ECF54C025E060A840B8E493A3CD
:100C1300FAE493A3F8E493A3C8C582C8CAC583CAF8
:100C2300F0A3C8C582C8CAC583CADFE9DEE780BEB0
:010E5E000093
:10059C00E709F608DFFA8046E709F208DFFA803E41
:1005AC0088828C83E709F0A3DFFA8032E309F6082E
:1005BC00DFFA8078E309F208DFFA807088828C8396
:1005CC00E309F0A3DFFA806489828A83E0A3F6084A
:1005DC00DFFA805889828A83E0A3F208DFFA804C24
:1005EC0080D280FA80C680D4806980F280338010FB
:1005FC0080A680EA809A80A880DA80E280CA803364
:10060C0089828A83ECFAE493A3C8C582C8CCC583DB
:10061C00CCF0A3C8C582C8CCC583CCDFE9DEE780AB
:10062C000D89828A83E493A3F608DFF9ECFAA9F02A
:10063C00EDFB2289828A83ECFAE0A3C8C582C8CC80
:10064C00C583CCF0A3C8C582C8CCC583CCDFEADE99
:10065C00E880DB89828A83E493A3F208DFF980CCFB
:10066C0088F0EF60010E4E60C388F0ED2402B404F4
:10067C000050B9F582EB2402B4040050AF2323459B
:06068C0082239005EC73CF
:10069200BB010689828A83E0225002E722BBFE0266
:0906A200E32289828A83E4932299
:1006AB00BC000BBE0029EF8DF084FFADF022E4CC33
:1006BB00F875F008EF2FFFEE33FEEC33FCEE9DECFC
:1006CB00984005FCEE9DFE0FD5F0E9E4CEFD22ED42
:1006DB00F8F5F0EE8420D21CFEADF075F008EF2F8C
:1006EB00FFED33FD4007985006D5F0F222C398FD7D
:0506FB000FD5F0EA221A
:10070000C2D5EC30E709B2D5E4C39DFDE49CFCEE14
:1007100030E715B2D5E4C39FFFE49EFE1206ABC3DB
:10072000E49DFDE49CFC80031206AB30D507C3E4D6
:060730009FFFE49EFE2283
:0E073600C3E49FFFE49EFEE49DFDE49CFC22D4
:00000001FF
